{
  "_format": "hh-sol-artifact-1",
  "contractName": "PRJCTX",
  "sourceName": "contracts/PRJCTX.sol",
  "abi": [
    {
      "inputs": [
        {
          "internalType": "string",
          "name": "_tokenName",
          "type": "string"
        },
        {
          "internalType": "string",
          "name": "_tokenSymbol",
          "type": "string"
        },
        {
          "internalType": "uint256",
          "name": "_cost",
          "type": "uint256"
        },
        {
          "internalType": "uint256",
          "name": "_maxSupply",
          "type": "uint256"
        },
        {
          "internalType": "uint256",
          "name": "_maxMintAmountPerTx",
          "type": "uint256"
        },
        {
          "internalType": "string",
          "name": "_hiddenMetadataUri",
          "type": "string"
        }
      ],
      "stateMutability": "nonpayable",
      "type": "constructor"
    },
    {
      "inputs": [],
      "name": "ApprovalCallerNotOwnerNorApproved",
      "type": "error"
    },
    {
      "inputs": [],
      "name": "ApprovalQueryForNonexistentToken",
      "type": "error"
    },
    {
      "inputs": [],
      "name": "ApprovalToCurrentOwner",
      "type": "error"
    },
    {
      "inputs": [],
      "name": "ApproveToCaller",
      "type": "error"
    },
    {
      "inputs": [],
      "name": "BalanceQueryForZeroAddress",
      "type": "error"
    },
    {
      "inputs": [],
      "name": "MintToZeroAddress",
      "type": "error"
    },
    {
      "inputs": [],
      "name": "MintZeroQuantity",
      "type": "error"
    },
    {
      "inputs": [],
      "name": "OwnerQueryForNonexistentToken",
      "type": "error"
    },
    {
      "inputs": [],
      "name": "TransferCallerNotOwnerNorApproved",
      "type": "error"
    },
    {
      "inputs": [],
      "name": "TransferFromIncorrectOwner",
      "type": "error"
    },
    {
      "inputs": [],
      "name": "TransferToNonERC721ReceiverImplementer",
      "type": "error"
    },
    {
      "inputs": [],
      "name": "TransferToZeroAddress",
      "type": "error"
    },
    {
      "anonymous": false,
      "inputs": [
        {
          "indexed": true,
          "internalType": "address",
          "name": "owner",
          "type": "address"
        },
        {
          "indexed": true,
          "internalType": "address",
          "name": "approved",
          "type": "address"
        },
        {
          "indexed": true,
          "internalType": "uint256",
          "name": "tokenId",
          "type": "uint256"
        }
      ],
      "name": "Approval",
      "type": "event"
    },
    {
      "anonymous": false,
      "inputs": [
        {
          "indexed": true,
          "internalType": "address",
          "name": "owner",
          "type": "address"
        },
        {
          "indexed": true,
          "internalType": "address",
          "name": "operator",
          "type": "address"
        },
        {
          "indexed": false,
          "internalType": "bool",
          "name": "approved",
          "type": "bool"
        }
      ],
      "name": "ApprovalForAll",
      "type": "event"
    },
    {
      "anonymous": false,
      "inputs": [
        {
          "indexed": true,
          "internalType": "address",
          "name": "previousOwner",
          "type": "address"
        },
        {
          "indexed": true,
          "internalType": "address",
          "name": "newOwner",
          "type": "address"
        }
      ],
      "name": "OwnershipTransferred",
      "type": "event"
    },
    {
      "anonymous": false,
      "inputs": [
        {
          "indexed": true,
          "internalType": "address",
          "name": "from",
          "type": "address"
        },
        {
          "indexed": true,
          "internalType": "address",
          "name": "to",
          "type": "address"
        },
        {
          "indexed": true,
          "internalType": "uint256",
          "name": "tokenId",
          "type": "uint256"
        }
      ],
      "name": "Transfer",
      "type": "event"
    },
    {
      "inputs": [
        {
          "internalType": "address",
          "name": "to",
          "type": "address"
        },
        {
          "internalType": "uint256",
          "name": "tokenId",
          "type": "uint256"
        }
      ],
      "name": "approve",
      "outputs": [],
      "stateMutability": "nonpayable",
      "type": "function"
    },
    {
      "inputs": [
        {
          "internalType": "address",
          "name": "owner",
          "type": "address"
        }
      ],
      "name": "balanceOf",
      "outputs": [
        {
          "internalType": "uint256",
          "name": "",
          "type": "uint256"
        }
      ],
      "stateMutability": "view",
      "type": "function"
    },
    {
      "inputs": [],
      "name": "cost",
      "outputs": [
        {
          "internalType": "uint256",
          "name": "",
          "type": "uint256"
        }
      ],
      "stateMutability": "view",
      "type": "function"
    },
    {
      "inputs": [
        {
          "internalType": "uint256",
          "name": "tokenId",
          "type": "uint256"
        }
      ],
      "name": "getApproved",
      "outputs": [
        {
          "internalType": "address",
          "name": "",
          "type": "address"
        }
      ],
      "stateMutability": "view",
      "type": "function"
    },
    {
      "inputs": [],
      "name": "hiddenMetadataUri",
      "outputs": [
        {
          "internalType": "string",
          "name": "",
          "type": "string"
        }
      ],
      "stateMutability": "view",
      "type": "function"
    },
    {
      "inputs": [
        {
          "internalType": "address",
          "name": "owner",
          "type": "address"
        },
        {
          "internalType": "address",
          "name": "operator",
          "type": "address"
        }
      ],
      "name": "isApprovedForAll",
      "outputs": [
        {
          "internalType": "bool",
          "name": "",
          "type": "bool"
        }
      ],
      "stateMutability": "view",
      "type": "function"
    },
    {
      "inputs": [],
      "name": "maxMintAmountPerTx",
      "outputs": [
        {
          "internalType": "uint256",
          "name": "",
          "type": "uint256"
        }
      ],
      "stateMutability": "view",
      "type": "function"
    },
    {
      "inputs": [],
      "name": "maxSupply",
      "outputs": [
        {
          "internalType": "uint256",
          "name": "",
          "type": "uint256"
        }
      ],
      "stateMutability": "view",
      "type": "function"
    },
    {
      "inputs": [],
      "name": "merkleRoot",
      "outputs": [
        {
          "internalType": "bytes32",
          "name": "",
          "type": "bytes32"
        }
      ],
      "stateMutability": "view",
      "type": "function"
    },
    {
      "inputs": [
        {
          "internalType": "uint256",
          "name": "_mintAmount",
          "type": "uint256"
        }
      ],
      "name": "mint",
      "outputs": [],
      "stateMutability": "payable",
      "type": "function"
    },
    {
      "inputs": [
        {
          "internalType": "uint256",
          "name": "_mintAmount",
          "type": "uint256"
        },
        {
          "internalType": "address",
          "name": "_receiver",
          "type": "address"
        }
      ],
      "name": "mintForAddress",
      "outputs": [],
      "stateMutability": "nonpayable",
      "type": "function"
    },
    {
      "inputs": [],
      "name": "name",
      "outputs": [
        {
          "internalType": "string",
          "name": "",
          "type": "string"
        }
      ],
      "stateMutability": "view",
      "type": "function"
    },
    {
      "inputs": [],
      "name": "owner",
      "outputs": [
        {
          "internalType": "address",
          "name": "",
          "type": "address"
        }
      ],
      "stateMutability": "view",
      "type": "function"
    },
    {
      "inputs": [
        {
          "internalType": "uint256",
          "name": "tokenId",
          "type": "uint256"
        }
      ],
      "name": "ownerOf",
      "outputs": [
        {
          "internalType": "address",
          "name": "",
          "type": "address"
        }
      ],
      "stateMutability": "view",
      "type": "function"
    },
    {
      "inputs": [],
      "name": "paused",
      "outputs": [
        {
          "internalType": "bool",
          "name": "",
          "type": "bool"
        }
      ],
      "stateMutability": "view",
      "type": "function"
    },
    {
      "inputs": [],
      "name": "renounceOwnership",
      "outputs": [],
      "stateMutability": "nonpayable",
      "type": "function"
    },
    {
      "inputs": [],
      "name": "revealed",
      "outputs": [
        {
          "internalType": "bool",
          "name": "",
          "type": "bool"
        }
      ],
      "stateMutability": "view",
      "type": "function"
    },
    {
      "inputs": [
        {
          "internalType": "address",
          "name": "from",
          "type": "address"
        },
        {
          "internalType": "address",
          "name": "to",
          "type": "address"
        },
        {
          "internalType": "uint256",
          "name": "tokenId",
          "type": "uint256"
        }
      ],
      "name": "safeTransferFrom",
      "outputs": [],
      "stateMutability": "nonpayable",
      "type": "function"
    },
    {
      "inputs": [
        {
          "internalType": "address",
          "name": "from",
          "type": "address"
        },
        {
          "internalType": "address",
          "name": "to",
          "type": "address"
        },
        {
          "internalType": "uint256",
          "name": "tokenId",
          "type": "uint256"
        },
        {
          "internalType": "bytes",
          "name": "_data",
          "type": "bytes"
        }
      ],
      "name": "safeTransferFrom",
      "outputs": [],
      "stateMutability": "nonpayable",
      "type": "function"
    },
    {
      "inputs": [
        {
          "internalType": "address",
          "name": "operator",
          "type": "address"
        },
        {
          "internalType": "bool",
          "name": "approved",
          "type": "bool"
        }
      ],
      "name": "setApprovalForAll",
      "outputs": [],
      "stateMutability": "nonpayable",
      "type": "function"
    },
    {
      "inputs": [
        {
          "internalType": "uint256",
          "name": "_cost",
          "type": "uint256"
        }
      ],
      "name": "setCost",
      "outputs": [],
      "stateMutability": "nonpayable",
      "type": "function"
    },
    {
      "inputs": [
        {
          "internalType": "string",
          "name": "_hiddenMetadataUri",
          "type": "string"
        }
      ],
      "name": "setHiddenMetadataUri",
      "outputs": [],
      "stateMutability": "nonpayable",
      "type": "function"
    },
    {
      "inputs": [
        {
          "internalType": "uint256",
          "name": "_maxMintAmountPerTx",
          "type": "uint256"
        }
      ],
      "name": "setMaxMintAmountPerTx",
      "outputs": [],
      "stateMutability": "nonpayable",
      "type": "function"
    },
    {
      "inputs": [
        {
          "internalType": "bytes32",
          "name": "_merkleRoot",
          "type": "bytes32"
        }
      ],
      "name": "setMerkleRoot",
      "outputs": [],
      "stateMutability": "nonpayable",
      "type": "function"
    },
    {
      "inputs": [
        {
          "internalType": "bool",
          "name": "_state",
          "type": "bool"
        }
      ],
      "name": "setPaused",
      "outputs": [],
      "stateMutability": "nonpayable",
      "type": "function"
    },
    {
      "inputs": [
        {
          "internalType": "bool",
          "name": "_state",
          "type": "bool"
        }
      ],
      "name": "setRevealed",
      "outputs": [],
      "stateMutability": "nonpayable",
      "type": "function"
    },
    {
      "inputs": [
        {
          "internalType": "string",
          "name": "_uriPrefix",
          "type": "string"
        }
      ],
      "name": "setUriPrefix",
      "outputs": [],
      "stateMutability": "nonpayable",
      "type": "function"
    },
    {
      "inputs": [
        {
          "internalType": "string",
          "name": "_uriSuffix",
          "type": "string"
        }
      ],
      "name": "setUriSuffix",
      "outputs": [],
      "stateMutability": "nonpayable",
      "type": "function"
    },
    {
      "inputs": [
        {
          "internalType": "bool",
          "name": "_state",
          "type": "bool"
        }
      ],
      "name": "setWhitelistMintEnabled",
      "outputs": [],
      "stateMutability": "nonpayable",
      "type": "function"
    },
    {
      "inputs": [
        {
          "internalType": "bytes4",
          "name": "interfaceId",
          "type": "bytes4"
        }
      ],
      "name": "supportsInterface",
      "outputs": [
        {
          "internalType": "bool",
          "name": "",
          "type": "bool"
        }
      ],
      "stateMutability": "view",
      "type": "function"
    },
    {
      "inputs": [],
      "name": "symbol",
      "outputs": [
        {
          "internalType": "string",
          "name": "",
          "type": "string"
        }
      ],
      "stateMutability": "view",
      "type": "function"
    },
    {
      "inputs": [
        {
          "internalType": "uint256",
          "name": "_tokenId",
          "type": "uint256"
        }
      ],
      "name": "tokenURI",
      "outputs": [
        {
          "internalType": "string",
          "name": "",
          "type": "string"
        }
      ],
      "stateMutability": "view",
      "type": "function"
    },
    {
      "inputs": [],
      "name": "totalSupply",
      "outputs": [
        {
          "internalType": "uint256",
          "name": "",
          "type": "uint256"
        }
      ],
      "stateMutability": "view",
      "type": "function"
    },
    {
      "inputs": [
        {
          "internalType": "address",
          "name": "from",
          "type": "address"
        },
        {
          "internalType": "address",
          "name": "to",
          "type": "address"
        },
        {
          "internalType": "uint256",
          "name": "tokenId",
          "type": "uint256"
        }
      ],
      "name": "transferFrom",
      "outputs": [],
      "stateMutability": "nonpayable",
      "type": "function"
    },
    {
      "inputs": [
        {
          "internalType": "address",
          "name": "newOwner",
          "type": "address"
        }
      ],
      "name": "transferOwnership",
      "outputs": [],
      "stateMutability": "nonpayable",
      "type": "function"
    },
    {
      "inputs": [],
      "name": "uriPrefix",
      "outputs": [
        {
          "internalType": "string",
          "name": "",
          "type": "string"
        }
      ],
      "stateMutability": "view",
      "type": "function"
    },
    {
      "inputs": [],
      "name": "uriSuffix",
      "outputs": [
        {
          "internalType": "string",
          "name": "",
          "type": "string"
        }
      ],
      "stateMutability": "view",
      "type": "function"
    },
    {
      "inputs": [
        {
          "internalType": "address",
          "name": "_owner",
          "type": "address"
        }
      ],
      "name": "walletOfOwner",
      "outputs": [
        {
          "internalType": "uint256[]",
          "name": "",
          "type": "uint256[]"
        }
      ],
      "stateMutability": "view",
      "type": "function"
    },
    {
      "inputs": [
        {
          "internalType": "bytes32[]",
          "name": "_merkleProof",
          "type": "bytes32[]"
        },
        {
          "internalType": "uint256",
          "name": "_mintAmount",
          "type": "uint256"
        }
      ],
      "name": "whiteListMint",
      "outputs": [],
      "stateMutability": "payable",
      "type": "function"
    },
    {
      "inputs": [
        {
          "internalType": "address",
          "name": "",
          "type": "address"
        }
      ],
      "name": "whitelistClaimed",
      "outputs": [
        {
          "internalType": "bool",
          "name": "",
          "type": "bool"
        }
      ],
      "stateMutability": "view",
      "type": "function"
    },
    {
      "inputs": [],
      "name": "whitelistMintEnabled",
      "outputs": [
        {
          "internalType": "bool",
          "name": "",
          "type": "bool"
        }
      ],
      "stateMutability": "view",
      "type": "function"
    },
    {
      "inputs": [],
      "name": "withdraw",
      "outputs": [],
      "stateMutability": "payable",
      "type": "function"
    }
  ],
  "bytecode": "0x60a06040819052600060808190526200001b91600b9162000258565b5060408051808201909152600580825264173539b7b760d91b60209092019182526200004a91600c9162000258565b506011805462ffffff191660011790553480156200006757600080fd5b5060405162002dd038038062002dd08339810160408190526200008a91620003cb565b855186908690620000a390600290602085019062000258565b508051620000b990600390602084019062000258565b5050600160005550620000cc33620000fe565b620000d78462000150565b600f839055620000e782620001a4565b620000f281620001f4565b505050505050620004b5565b600880546001600160a01b038381166001600160a01b0319831681179093556040519116919082907f8be0079c531659141344cd1fd0a4f28419497f9722a3daafe3b4186f6b6457e090600090a35050565b6008546001600160a01b031633146200019f5760405162461bcd60e51b8152602060048201819052602482015260008051602062002db083398151915260448201526064015b60405180910390fd5b600e55565b6008546001600160a01b03163314620001ef5760405162461bcd60e51b8152602060048201819052602482015260008051602062002db0833981519152604482015260640162000196565b601055565b6008546001600160a01b031633146200023f5760405162461bcd60e51b8152602060048201819052602482015260008051602062002db0833981519152604482015260640162000196565b80516200025490600d90602084019062000258565b5050565b828054620002669062000478565b90600052602060002090601f0160209004810192826200028a5760008555620002d5565b82601f10620002a557805160ff1916838001178555620002d5565b82800160010185558215620002d5579182015b82811115620002d5578251825591602001919060010190620002b8565b50620002e3929150620002e7565b5090565b5b80821115620002e35760008155600101620002e8565b634e487b7160e01b600052604160045260246000fd5b600082601f8301126200032657600080fd5b81516001600160401b0380821115620003435762000343620002fe565b604051601f8301601f19908116603f011681019082821181831017156200036e576200036e620002fe565b816040528381526020925086838588010111156200038b57600080fd5b600091505b83821015620003af578582018301518183018401529082019062000390565b83821115620003c15760008385830101525b9695505050505050565b60008060008060008060c08789031215620003e557600080fd5b86516001600160401b0380821115620003fd57600080fd5b6200040b8a838b0162000314565b975060208901519150808211156200042257600080fd5b620004308a838b0162000314565b965060408901519550606089015194506080890151935060a08901519150808211156200045c57600080fd5b506200046b89828a0162000314565b9150509295509295509295565b600181811c908216806200048d57607f821691505b60208210811415620004af57634e487b7160e01b600052602260045260246000fd5b50919050565b6128eb80620004c56000396000f3fe6080604052600436106102d15760003560e01c806370a0823111610179578063b071401b116100d6578063d5abeb011161008a578063e985e9c511610064578063e985e9c514610775578063efbd73f4146107be578063f2fde38b146107de57600080fd5b8063d5abeb011461070f578063db4bec4414610725578063e0a808531461075557600080fd5b8063b88d4fde116100bb578063b88d4fde146106bc578063c30bf318146106dc578063c87b56dd146106ef57600080fd5b8063b071401b1461067c578063b767a0981461069c57600080fd5b806394354fd01161012d578063a0712d6811610112578063a0712d6814610634578063a22cb46514610647578063a45ba8e71461066757600080fd5b806394354fd01461060957806395d89b411461061f57600080fd5b80637cb647591161015e5780637cb64759146105ab5780637ec4a659146105cb5780638da5cb5b146105eb57600080fd5b806370a0823114610576578063715018a61461059657600080fd5b80633ccfd60b1161023257806351830227116101e657806362b99ad4116101c057806362b99ad4146105225780636352211e146105375780636caede3d1461055757600080fd5b806351830227146104d35780635503a0e8146104f35780635c975abb1461050857600080fd5b8063438b630011610217578063438b63001461046657806344a0d68a146104935780634fdd43cb146104b357600080fd5b80633ccfd60b1461043e57806342842e0e1461044657600080fd5b806316ba10e01161028957806318160ddd1161026e57806318160ddd146103eb57806323b872dd146104085780632eb4a7ab1461042857600080fd5b806316ba10e0146103ab57806316c38b3c146103cb57600080fd5b8063081812fc116102ba578063081812fc1461032d578063095ea7b31461036557806313faede61461038757600080fd5b806301ffc9a7146102d657806306fdde031461030b575b600080fd5b3480156102e257600080fd5b506102f66102f1366004612271565b6107fe565b60405190151581526020015b60405180910390f35b34801561031757600080fd5b50610320610850565b60405161030291906122e6565b34801561033957600080fd5b5061034d6103483660046122f9565b6108e2565b6040516001600160a01b039091168152602001610302565b34801561037157600080fd5b5061038561038036600461232e565b610926565b005b34801561039357600080fd5b5061039d600e5481565b604051908152602001610302565b3480156103b757600080fd5b506103856103c63660046123e4565b6109b4565b3480156103d757600080fd5b506103856103e636600461243d565b610a18565b3480156103f757600080fd5b50600154600054036000190161039d565b34801561041457600080fd5b50610385610423366004612458565b610a73565b34801561043457600080fd5b5061039d60095481565b610385610a7e565b34801561045257600080fd5b50610385610461366004612458565b610b7d565b34801561047257600080fd5b50610486610481366004612494565b610b98565b60405161030291906124af565b34801561049f57600080fd5b506103856104ae3660046122f9565b610ce1565b3480156104bf57600080fd5b506103856104ce3660046123e4565b610d2e565b3480156104df57600080fd5b506011546102f69062010000900460ff1681565b3480156104ff57600080fd5b50610320610d89565b34801561051457600080fd5b506011546102f69060ff1681565b34801561052e57600080fd5b50610320610e17565b34801561054357600080fd5b5061034d6105523660046122f9565b610e24565b34801561056357600080fd5b506011546102f690610100900460ff1681565b34801561058257600080fd5b5061039d610591366004612494565b610e36565b3480156105a257600080fd5b50610385610e85565b3480156105b757600080fd5b506103856105c63660046122f9565b610ed9565b3480156105d757600080fd5b506103856105e63660046123e4565b610f26565b3480156105f757600080fd5b506008546001600160a01b031661034d565b34801561061557600080fd5b5061039d60105481565b34801561062b57600080fd5b50610320610f81565b6103856106423660046122f9565b610f90565b34801561065357600080fd5b506103856106623660046124f3565b611101565b34801561067357600080fd5b50610320611197565b34801561068857600080fd5b506103856106973660046122f9565b6111a4565b3480156106a857600080fd5b506103856106b736600461243d565b6111f1565b3480156106c857600080fd5b506103856106d7366004612526565b611253565b6103856106ea3660046125a2565b6112a4565b3480156106fb57600080fd5b5061032061070a3660046122f9565b611561565b34801561071b57600080fd5b5061039d600f5481565b34801561073157600080fd5b506102f6610740366004612494565b600a6020526000908152604090205460ff1681565b34801561076157600080fd5b5061038561077036600461243d565b6116df565b34801561078157600080fd5b506102f661079036600461261d565b6001600160a01b03918216600090815260076020908152604080832093909416825291909152205460ff1690565b3480156107ca57600080fd5b506103856107d9366004612647565b611743565b3480156107ea57600080fd5b506103856107f9366004612494565b61184b565b60006001600160e01b031982166380ac58cd60e01b148061082f57506001600160e01b03198216635b5e139f60e01b145b8061084a57506301ffc9a760e01b6001600160e01b03198316145b92915050565b60606002805461085f9061266a565b80601f016020809104026020016040519081016040528092919081815260200182805461088b9061266a565b80156108d85780601f106108ad576101008083540402835291602001916108d8565b820191906000526020600020905b8154815290600101906020018083116108bb57829003601f168201915b5050505050905090565b60006108ed82611918565b61090a576040516333d1c03960e21b815260040160405180910390fd5b506000908152600660205260409020546001600160a01b031690565b600061093182610e24565b9050806001600160a01b0316836001600160a01b031614156109665760405163250fdee360e21b815260040160405180910390fd5b336001600160a01b0382161480159061098657506109848133610790565b155b156109a4576040516367d9dca160e11b815260040160405180910390fd5b6109af838383611951565b505050565b6008546001600160a01b03163314610a015760405162461bcd60e51b8152602060048201819052602482015260008051602061289683398151915260448201526064015b60405180910390fd5b8051610a1490600c9060208401906121c2565b5050565b6008546001600160a01b03163314610a605760405162461bcd60e51b8152602060048201819052602482015260008051602061289683398151915260448201526064016109f8565b6011805460ff1916911515919091179055565b6109af8383836119ba565b6008546001600160a01b03163314610ac65760405162461bcd60e51b8152602060048201819052602482015260008051602061289683398151915260448201526064016109f8565b6000610ada6008546001600160a01b031690565b6001600160a01b03164760405160006040518083038185875af1925050503d8060008114610b24576040519150601f19603f3d011682016040523d82523d6000602084013e610b29565b606091505b5050905080610b7a5760405162461bcd60e51b815260206004820152601260248201527f4661696c656420746f207769746864726177000000000000000000000000000060448201526064016109f8565b50565b6109af83838360405180602001604052806000815250611253565b60606000610ba583610e36565b905060008167ffffffffffffffff811115610bc257610bc2612358565b604051908082528060200260200182016040528015610beb578160200160208202803683370190505b50905060016000805b8482108015610c055750600f548311155b15610cd657600083815260046020908152604091829020825160608101845290546001600160a01b0381168252600160a01b810467ffffffffffffffff1692820192909252600160e01b90910460ff161580159282018390529091610c73575080516001600160a01b031615155b15610c7d57805191505b876001600160a01b0316826001600160a01b03161415610cc35783858481518110610caa57610caa6126a5565b602090810291909101015282610cbf816126d1565b9350505b83610ccd816126d1565b94505050610bf4565b509195945050505050565b6008546001600160a01b03163314610d295760405162461bcd60e51b8152602060048201819052602482015260008051602061289683398151915260448201526064016109f8565b600e55565b6008546001600160a01b03163314610d765760405162461bcd60e51b8152602060048201819052602482015260008051602061289683398151915260448201526064016109f8565b8051610a1490600d9060208401906121c2565b600c8054610d969061266a565b80601f0160208091040260200160405190810160405280929190818152602001828054610dc29061266a565b8015610e0f5780601f10610de457610100808354040283529160200191610e0f565b820191906000526020600020905b815481529060010190602001808311610df257829003601f168201915b505050505081565b600b8054610d969061266a565b6000610e2f82611baa565b5192915050565b60006001600160a01b038216610e5f576040516323d3ad8160e21b815260040160405180910390fd5b506001600160a01b031660009081526005602052604090205467ffffffffffffffff1690565b6008546001600160a01b03163314610ecd5760405162461bcd60e51b8152602060048201819052602482015260008051602061289683398151915260448201526064016109f8565b610ed76000611cd3565b565b6008546001600160a01b03163314610f215760405162461bcd60e51b8152602060048201819052602482015260008051602061289683398151915260448201526064016109f8565b600955565b6008546001600160a01b03163314610f6e5760405162461bcd60e51b8152602060048201819052602482015260008051602061289683398151915260448201526064016109f8565b8051610a1490600b9060208401906121c2565b60606003805461085f9061266a565b80600081118015610fa357506010548111155b610fe65760405162461bcd60e51b8152602060048201526014602482015273496e76616c6964206d696e7420616d6f756e742160601b60448201526064016109f8565b600f54600154600054839190036000190161100191906126ec565b11156110465760405162461bcd60e51b81526020600482015260146024820152734d617820737570706c792065786365656465642160601b60448201526064016109f8565b8180600e546110559190612704565b3410156110a45760405162461bcd60e51b815260206004820152601360248201527f496e73756666696369656e742066756e6473210000000000000000000000000060448201526064016109f8565b60115460ff16156110f75760405162461bcd60e51b815260206004820152601760248201527f54686520636f6e7472616374206973207061757365642100000000000000000060448201526064016109f8565b6109af3384611d32565b6001600160a01b03821633141561112b5760405163b06307db60e01b815260040160405180910390fd5b3360008181526007602090815260408083206001600160a01b03871680855290835292819020805460ff191686151590811790915590519081529192917f17307eab39ab6107e8899845ad3d59bd9653f200f220920489ca2b5937696c31910160405180910390a35050565b600d8054610d969061266a565b6008546001600160a01b031633146111ec5760405162461bcd60e51b8152602060048201819052602482015260008051602061289683398151915260448201526064016109f8565b601055565b6008546001600160a01b031633146112395760405162461bcd60e51b8152602060048201819052602482015260008051602061289683398151915260448201526064016109f8565b601180549115156101000261ff0019909216919091179055565b61125e8484846119ba565b6001600160a01b0383163b15158015611280575061127e84848484611d4c565b155b1561129e576040516368d2bf6b60e11b815260040160405180910390fd5b50505050565b806000811180156112b757506010548111155b6112fa5760405162461bcd60e51b8152602060048201526014602482015273496e76616c6964206d696e7420616d6f756e742160601b60448201526064016109f8565b600f54600154600054839190036000190161131591906126ec565b111561135a5760405162461bcd60e51b81526020600482015260146024820152734d617820737570706c792065786365656465642160601b60448201526064016109f8565b8180600e546113699190612704565b3410156113b85760405162461bcd60e51b815260206004820152601360248201527f496e73756666696369656e742066756e6473210000000000000000000000000060448201526064016109f8565b601154610100900460ff1661140f5760405162461bcd60e51b815260206004820152601e60248201527f57686974656c6973742073616c65206973206e6f7420656e61626c656421000060448201526064016109f8565b336000908152600a602052604090205460ff161561146f5760405162461bcd60e51b815260206004820152601860248201527f4164647265737320616c726561647920636c61696d656421000000000000000060448201526064016109f8565b6040516bffffffffffffffffffffffff193360601b1660208201526000906034016040516020818303038152906040528051906020012090506114e9868680806020026020016040519081016040528093929190818152602001838360200280828437600092019190915250506009549150849050611e35565b6115355760405162461bcd60e51b815260206004820152600e60248201527f496e76616c69642070726f6f662100000000000000000000000000000000000060448201526064016109f8565b336000818152600a60205260409020805460ff191660011790556115599085611d32565b505050505050565b606061156c82611918565b6115de5760405162461bcd60e51b815260206004820152603060248201527f455243373231414d657461646174613a2055524920717565727920666f72206e60448201527f6f6e6578697374656e7420746f6b656e0000000000000000000000000000000060648201526084016109f8565b60115462010000900460ff1661168057600d80546115fb9061266a565b80601f01602080910402602001604051908101604052809291908181526020018280546116279061266a565b80156116745780601f1061164957610100808354040283529160200191611674565b820191906000526020600020905b81548152906001019060200180831161165757829003601f168201915b50505050509050919050565b600061168a611e4b565b905060008151116116aa57604051806020016040528060008152506116d8565b806116b484611e5a565b600c6040516020016116c893929190612723565b6040516020818303038152906040525b9392505050565b6008546001600160a01b031633146117275760405162461bcd60e51b8152602060048201819052602482015260008051602061289683398151915260448201526064016109f8565b60118054911515620100000262ff000019909216919091179055565b8160008111801561175657506010548111155b6117995760405162461bcd60e51b8152602060048201526014602482015273496e76616c6964206d696e7420616d6f756e742160601b60448201526064016109f8565b600f5460015460005483919003600019016117b491906126ec565b11156117f95760405162461bcd60e51b81526020600482015260146024820152734d617820737570706c792065786365656465642160601b60448201526064016109f8565b6008546001600160a01b031633146118415760405162461bcd60e51b8152602060048201819052602482015260008051602061289683398151915260448201526064016109f8565b6109af8284611d32565b6008546001600160a01b031633146118935760405162461bcd60e51b8152602060048201819052602482015260008051602061289683398151915260448201526064016109f8565b6001600160a01b03811661190f5760405162461bcd60e51b815260206004820152602660248201527f4f776e61626c653a206e6577206f776e657220697320746865207a65726f206160448201527f646472657373000000000000000000000000000000000000000000000000000060648201526084016109f8565b610b7a81611cd3565b60008160011115801561192c575060005482105b801561084a575050600090815260046020526040902054600160e01b900460ff161590565b600082815260066020526040808220805473ffffffffffffffffffffffffffffffffffffffff19166001600160a01b0387811691821790925591518593918516917f8c5be1e5ebec7d5bd14f71427d1e84f3dd0314c0f7b2291e5b200ac8c7c3b92591a4505050565b60006119c582611baa565b9050836001600160a01b031681600001516001600160a01b0316146119fc5760405162a1148160e81b815260040160405180910390fd5b6000336001600160a01b0386161480611a1a5750611a1a8533610790565b80611a35575033611a2a846108e2565b6001600160a01b0316145b905080611a5557604051632ce44b5f60e11b815260040160405180910390fd5b6001600160a01b038416611a7c57604051633a954ecd60e21b815260040160405180910390fd5b611a8860008487611951565b6001600160a01b038581166000908152600560209081526040808320805467ffffffffffffffff1980821667ffffffffffffffff92831660001901831617909255898616808652838620805493841693831660019081018416949094179055898652600490945282852080546001600160e01b031916909417600160a01b42909216919091021783558701808452922080549193909116611b5e576000548214611b5e578054602086015167ffffffffffffffff16600160a01b026001600160e01b03199091166001600160a01b038a16171781555b50505082846001600160a01b0316866001600160a01b03167fddf252ad1be2c89b69c2b068fc378daa952ba7f163c4a11628f55a4df523b3ef60405160405180910390a45b5050505050565b60408051606081018252600080825260208201819052918101919091528180600111158015611bda575060005481105b15611cba57600081815260046020908152604091829020825160608101845290546001600160a01b0381168252600160a01b810467ffffffffffffffff1692820192909252600160e01b90910460ff16151591810182905290611cb85780516001600160a01b031615611c4e579392505050565b5060001901600081815260046020908152604091829020825160608101845290546001600160a01b038116808352600160a01b820467ffffffffffffffff1693830193909352600160e01b900460ff1615159281019290925215611cb3579392505050565b611c4e565b505b604051636f96cda160e11b815260040160405180910390fd5b600880546001600160a01b0383811673ffffffffffffffffffffffffffffffffffffffff19831681179093556040519116919082907f8be0079c531659141344cd1fd0a4f28419497f9722a3daafe3b4186f6b6457e090600090a35050565b610a14828260405180602001604052806000815250611f70565b604051630a85bd0160e11b81526000906001600160a01b0385169063150b7a0290611d819033908990889088906004016127e7565b6020604051808303816000875af1925050508015611dbc575060408051601f3d908101601f19168201909252611db991810190612823565b60015b611e17573d808015611dea576040519150601f19603f3d011682016040523d82523d6000602084013e611def565b606091505b508051611e0f576040516368d2bf6b60e11b815260040160405180910390fd5b805181602001fd5b6001600160e01b031916630a85bd0160e11b1490505b949350505050565b600082611e428584611f7d565b14949350505050565b6060600b805461085f9061266a565b606081611e7e5750506040805180820190915260018152600360fc1b602082015290565b8160005b8115611ea85780611e92816126d1565b9150611ea19050600a83612856565b9150611e82565b60008167ffffffffffffffff811115611ec357611ec3612358565b6040519080825280601f01601f191660200182016040528015611eed576020820181803683370190505b5090505b8415611e2d57611f0260018361286a565b9150611f0f600a86612881565b611f1a9060306126ec565b60f81b818381518110611f2f57611f2f6126a5565b60200101907effffffffffffffffffffffffffffffffffffffffffffffffffffffffffffff1916908160001a905350611f69600a86612856565b9450611ef1565b6109af8383836001611ff1565b600081815b8451811015611fe9576000858281518110611f9f57611f9f6126a5565b60200260200101519050808311611fc55760008381526020829052604090209250611fd6565b600081815260208490526040902092505b5080611fe1816126d1565b915050611f82565b509392505050565b6000546001600160a01b03851661201a57604051622e076360e81b815260040160405180910390fd5b836120385760405163b562e8dd60e01b815260040160405180910390fd5b6001600160a01b038516600081815260056020908152604080832080546fffffffffffffffffffffffffffffffff19811667ffffffffffffffff8083168c0181169182176801000000000000000067ffffffffffffffff1990941690921783900481168c01811690920217909155858452600490925290912080546001600160e01b031916909217600160a01b4290921691909102179055808085018380156120ea57506001600160a01b0387163b15155b15612173575b60405182906001600160a01b038916906000907fddf252ad1be2c89b69c2b068fc378daa952ba7f163c4a11628f55a4df523b3ef908290a461213b6000888480600101955088611d4c565b612158576040516368d2bf6b60e11b815260040160405180910390fd5b808214156120f057826000541461216e57600080fd5b6121b9565b5b6040516001830192906001600160a01b038916906000907fddf252ad1be2c89b69c2b068fc378daa952ba7f163c4a11628f55a4df523b3ef908290a480821415612174575b50600055611ba3565b8280546121ce9061266a565b90600052602060002090601f0160209004810192826121f05760008555612236565b82601f1061220957805160ff1916838001178555612236565b82800160010185558215612236579182015b8281111561223657825182559160200191906001019061221b565b50612242929150612246565b5090565b5b808211156122425760008155600101612247565b6001600160e01b031981168114610b7a57600080fd5b60006020828403121561228357600080fd5b81356116d88161225b565b60005b838110156122a9578181015183820152602001612291565b8381111561129e5750506000910152565b600081518084526122d281602086016020860161228e565b601f01601f19169290920160200192915050565b6020815260006116d860208301846122ba565b60006020828403121561230b57600080fd5b5035919050565b80356001600160a01b038116811461232957600080fd5b919050565b6000806040838503121561234157600080fd5b61234a83612312565b946020939093013593505050565b634e487b7160e01b600052604160045260246000fd5b600067ffffffffffffffff8084111561238957612389612358565b604051601f8501601f19908116603f011681019082821181831017156123b1576123b1612358565b816040528093508581528686860111156123ca57600080fd5b858560208301376000602087830101525050509392505050565b6000602082840312156123f657600080fd5b813567ffffffffffffffff81111561240d57600080fd5b8201601f8101841361241e57600080fd5b611e2d8482356020840161236e565b8035801515811461232957600080fd5b60006020828403121561244f57600080fd5b6116d88261242d565b60008060006060848603121561246d57600080fd5b61247684612312565b925061248460208501612312565b9150604084013590509250925092565b6000602082840312156124a657600080fd5b6116d882612312565b6020808252825182820181905260009190848201906040850190845b818110156124e7578351835292840192918401916001016124cb565b50909695505050505050565b6000806040838503121561250657600080fd5b61250f83612312565b915061251d6020840161242d565b90509250929050565b6000806000806080858703121561253c57600080fd5b61254585612312565b935061255360208601612312565b925060408501359150606085013567ffffffffffffffff81111561257657600080fd5b8501601f8101871361258757600080fd5b6125968782356020840161236e565b91505092959194509250565b6000806000604084860312156125b757600080fd5b833567ffffffffffffffff808211156125cf57600080fd5b818601915086601f8301126125e357600080fd5b8135818111156125f257600080fd5b8760208260051b850101111561260757600080fd5b6020928301989097509590910135949350505050565b6000806040838503121561263057600080fd5b61263983612312565b915061251d60208401612312565b6000806040838503121561265a57600080fd5b8235915061251d60208401612312565b600181811c9082168061267e57607f821691505b6020821081141561269f57634e487b7160e01b600052602260045260246000fd5b50919050565b634e487b7160e01b600052603260045260246000fd5b634e487b7160e01b600052601160045260246000fd5b60006000198214156126e5576126e56126bb565b5060010190565b600082198211156126ff576126ff6126bb565b500190565b600081600019048311821515161561271e5761271e6126bb565b500290565b6000845160206127368285838a0161228e565b8551918401916127498184848a0161228e565b8554920191600090600181811c908083168061276657607f831692505b85831081141561278457634e487b7160e01b85526022600452602485fd5b80801561279857600181146127a9576127d6565b60ff198516885283880195506127d6565b60008b81526020902060005b858110156127ce5781548a8201529084019088016127b5565b505083880195505b50939b9a5050505050505050505050565b60006001600160a01b0380871683528086166020840152508360408301526080606083015261281960808301846122ba565b9695505050505050565b60006020828403121561283557600080fd5b81516116d88161225b565b634e487b7160e01b600052601260045260246000fd5b60008261286557612865612840565b500490565b60008282101561287c5761287c6126bb565b500390565b60008261289057612890612840565b50069056fe4f776e61626c653a2063616c6c6572206973206e6f7420746865206f776e6572a26469706673582212205ca82b417b179048802886d04fd17bb21b421b4c40f052d65f40606e58dcef7f64736f6c634300080b00334f776e61626c653a2063616c6c6572206973206e6f7420746865206f776e6572",
  "linkReferences": {},
  "deployedLinkReferences": {}
}